:100000000C9446000C9465000C9465000C946500FB
:100010000C9465000C9465000C9465000C946500CC
:100020000C9465000C9465000C9465000C946500BC
:100030000C9465000C94B4000C9465000C9465005D
:100040000C9465000C9465000C9465000C9465009C
:100050000C9465000C9465000C9465000C9465008C
:100060000C9465000C9465000C9465000C9465007C
:100070000C9465000C9465000C9465000C9465006C
:100080000C9465000C9465000C94650011241FBE4F
:10009000CFEFD0E4DEBFCDBF11E0A0E0B1E0ECEEE9
:1000A000F2E000E00BBF02C007900D92A231B10751
:1000B000D9F711E0A2E1B1E001C01D92AD31B10765
:1000C000E1F70E944E010C9474010C940000CF9350
:1000D000C82F8A3019F48DE00E9467009091C0000B
:1000E00095FFFCCFC093C60080E090E0CF910895CB
:1000F00060930001709301018093020190930301CA
:100100006093140170931501809316019093170169
:1001100008958BE0809381008DE790E090938900B3
:100120008093880082E080936F0010928500109287
:1001300084008091000190910101A0910201B09191
:1001400003018093140190931501A0931601B093BD
:1001500017018FB780688FBF0895109281000895AE
:1001600081E08093180108951F920F920FB60F92AD
:1001700011240BB60F922F933F934F935F936F937E
:100180007F938F939F93AF93BF93EF93FF93809150
:10019000140190911501A0911601B09117010197DA
:1001A000A109B1098093140190931501A093160140
:1001B000B0931701892B8A2B8B2B91F40E94B000EE
:1001C0008091000190910101A0910201B091030181
:1001D0008093140190931501A0931601B093170119
:1001E000FF91EF91BF91AF919F918F917F916F910F
:1001F0005F914F913F912F910F900BBE0F900FBECB
:100200000F901F9018958091190190911A018130DB
:10021000910571F018F00297A9F01CC081E080935D
:10022000130181E090E090931A01809319010895E1
:1002300082E08093130182E090E090931A01809312
:100240001901089584E08093130110921A0110920D
:100250001901089510921A011092190108958091C0
:100260001B0190911C01009719F0019751F011C0EA
:100270001092120181E090E090931C0180931B0189
:10028000089588E08093120110921C0110921B01C6
:10029000089510921C0110921B0108958FEF84B9EC
:1002A00015B86DE770E080E090E00E9478000E9451
:1002B00089001092180110921A01109219011092DF
:1002C0001C0110921B010E9403010E942F019091BA
:1002D000130180911201892B85B98091180188231F
:0C02E000E1F310921801EFCFF894FFCF6B
:1002EC000100000000000002000000006700000098
:0202FC00000000
:00000001FF
